{
    "_format": "hh-sol-artifact-1",
    "contractName": "MultiUniversityProjectRepository",
    "sourceName": "contracts/MultiUniversityProjectRepository.sol",
    "abi": [
        {
            "inputs": [],
            "stateMutability": "nonpayable",
            "type": "constructor"
        },
        {
            "anonymous": false,
            "inputs": [
                {
                    "indexed": true,
                    "internalType": "uint256",
                    "name": "projectId",
                    "type": "uint256"
                },
                {
                    "indexed": false,
                    "internalType": "enum MultiUniversityProjectRepository.AccessLevel",
                    "name": "oldAccessLevel",
                    "type": "uint8"
                },
                {
                    "indexed": false,
                    "internalType": "enum MultiUniversityProjectRepository.AccessLevel",
                    "name": "newAccessLevel",
                    "type": "uint8"
                },
                {
                    "indexed": true,
                    "internalType": "address",
                    "name": "changedBy",
                    "type": "address"
                },
                {
                    "indexed": false,
                    "internalType": "uint256",
                    "name": "timestamp",
                    "type": "uint256"
                }
            ],
            "name": "AccessLevelChanged",
            "type": "event"
        },
        {
            "anonymous": false,
            "inputs": [
                {
                    "indexed": true,
                    "internalType": "uint256",
                    "name": "departmentId",
                    "type": "uint256"
                },
                {
                    "indexed": false,
                    "internalType": "string",
                    "name": "name",
                    "type": "string"
                },
                {
                    "indexed": true,
                    "internalType": "uint256",
                    "name": "institutionId",
                    "type": "uint256"
                },
                {
                    "indexed": true,
                    "internalType": "address",
                    "name": "addedBy",
                    "type": "address"
                },
                {
                    "indexed": false,
                    "internalType": "uint256",
                    "name": "timestamp",
                    "type": "uint256"
                }
            ],
            "name": "DepartmentAdded",
            "type": "event"
        },
        {
            "anonymous": false,
            "inputs": [
                {
                    "indexed": true,
                    "internalType": "uint256",
                    "name": "institutionId",
                    "type": "uint256"
                },
                {
                    "indexed": false,
                    "internalType": "string",
                    "name": "name",
                    "type": "string"
                },
                {
                    "indexed": true,
                    "internalType": "address",
                    "name": "addedBy",
                    "type": "address"
                },
                {
                    "indexed": false,
                    "internalType": "uint256",
                    "name": "timestamp",
                    "type": "uint256"
                }
            ],
            "name": "InstitutionAdded",
            "type": "event"
        },
        {
            "anonymous": false,
            "inputs": [
                {
                    "indexed": true,
                    "internalType": "uint256",
                    "name": "projectId",
                    "type": "uint256"
                },
                {
                    "indexed": false,
                    "internalType": "string",
                    "name": "title",
                    "type": "string"
                },
                {
                    "indexed": true,
                    "internalType": "address",
                    "name": "uploader",
                    "type": "address"
                },
                {
                    "indexed": true,
                    "internalType": "uint256",
                    "name": "departmentId",
                    "type": "uint256"
                },
                {
                    "indexed": false,
                    "internalType": "enum MultiUniversityProjectRepository.AccessLevel",
                    "name": "accessLevel",
                    "type": "uint8"
                },
                {
                    "indexed": false,
                    "internalType": "uint256",
                    "name": "timestamp",
                    "type": "uint256"
                }
            ],
            "name": "ProjectRegistered",
            "type": "event"
        },
        {
            "anonymous": false,
            "inputs": [
                {
                    "indexed": true,
                    "internalType": "address",
                    "name": "user",
                    "type": "address"
                },
                {
                    "indexed": true,
                    "internalType": "uint256",
                    "name": "departmentId",
                    "type": "uint256"
                },
                {
                    "indexed": true,
                    "internalType": "uint256",
                    "name": "institutionId",
                    "type": "uint256"
                },
                {
                    "indexed": false,
                    "internalType": "bool",
                    "name": "isStudent",
                    "type": "bool"
                },
                {
                    "indexed": false,
                    "internalType": "address",
                    "name": "registeredBy",
                    "type": "address"
                },
                {
                    "indexed": false,
                    "internalType": "uint256",
                    "name": "timestamp",
                    "type": "uint256"
                }
            ],
            "name": "UserRegistered",
            "type": "event"
        },
        {
            "inputs": [
                {
                    "internalType": "uint256",
                    "name": "_projectId",
                    "type": "uint256"
                },
                {
                    "internalType": "address",
                    "name": "_coAuthor",
                    "type": "address"
                }
            ],
            "name": "addCoAuthor",
            "outputs": [],
            "stateMutability": "nonpayable",
            "type": "function"
        },
        {
            "inputs": [
                {
                    "internalType": "string",
                    "name": "_name",
                    "type": "string"
                },
                {
                    "internalType": "uint256",
                    "name": "_institutionId",
                    "type": "uint256"
                }
            ],
            "name": "addDepartment",
            "outputs": [
                {
                    "internalType": "uint256",
                    "name": "",
                    "type": "uint256"
                }
            ],
            "stateMutability": "nonpayable",
            "type": "function"
        },
        {
            "inputs": [
                {
                    "internalType": "string",
                    "name": "_name",
                    "type": "string"
                }
            ],
            "name": "addInstitution",
            "outputs": [
                {
                    "internalType": "uint256",
                    "name": "",
                    "type": "uint256"
                }
            ],
            "stateMutability": "nonpayable",
            "type": "function"
        },
        {
            "inputs": [],
            "name": "getAllInstitutions",
            "outputs": [
                {
                    "internalType": "uint256[]",
                    "name": "ids",
                    "type": "uint256[]"
                },
                {
                    "internalType": "string[]",
                    "name": "names",
                    "type": "string[]"
                }
            ],
            "stateMutability": "view",
            "type": "function"
        },
        {
            "inputs": [
                {
                    "internalType": "uint256",
                    "name": "_departmentId",
                    "type": "uint256"
                }
            ],
            "name": "getDepartmentInfo",
            "outputs": [
                {
                    "internalType": "string",
                    "name": "name",
                    "type": "string"
                },
                {
                    "internalType": "uint256",
                    "name": "institutionId",
                    "type": "uint256"
                }
            ],
            "stateMutability": "view",
            "type": "function"
        },
        {
            "inputs": [
                {
                    "internalType": "uint256",
                    "name": "_institutionId",
                    "type": "uint256"
                }
            ],
            "name": "getDepartmentsByInstitution",
            "outputs": [
                {
                    "internalType": "uint256[]",
                    "name": "ids",
                    "type": "uint256[]"
                },
                {
                    "internalType": "string[]",
                    "name": "names",
                    "type": "string[]"
                }
            ],
            "stateMutability": "view",
            "type": "function"
        },
        {
            "inputs": [
                {
                    "internalType": "uint256",
                    "name": "_institutionId",
                    "type": "uint256"
                }
            ],
            "name": "getInstitutionInfo",
            "outputs": [
                {
                    "internalType": "string",
                    "name": "name",
                    "type": "string"
                }
            ],
            "stateMutability": "view",
            "type": "function"
        },
        {
            "inputs": [
                {
                    "internalType": "uint256",
                    "name": "_projectId",
                    "type": "uint256"
                }
            ],
            "name": "getProjectAccessLevel",
            "outputs": [
                {
                    "internalType": "enum MultiUniversityProjectRepository.AccessLevel",
                    "name": "",
                    "type": "uint8"
                }
            ],
            "stateMutability": "view",
            "type": "function"
        },
        {
            "inputs": [
                {
                    "internalType": "uint256",
                    "name": "_projectId",
                    "type": "uint256"
                }
            ],
            "name": "getProjectById",
            "outputs": [
                {
                    "internalType": "uint256",
                    "name": "projectId",
                    "type": "uint256"
                },
                {
                    "internalType": "string",
                    "name": "title",
                    "type": "string"
                },
                {
                    "internalType": "address[]",
                    "name": "authors",
                    "type": "address[]"
                },
                {
                    "internalType": "uint256",
                    "name": "uploadDate",
                    "type": "uint256"
                },
                {
                    "internalType": "string",
                    "name": "ipfsHash",
                    "type": "string"
                },
                {
                    "internalType": "uint256",
                    "name": "departmentId",
                    "type": "uint256"
                },
                {
                    "internalType": "uint256",
                    "name": "year",
                    "type": "uint256"
                },
                {
                    "internalType": "string",
                    "name": "description",
                    "type": "string"
                },
                {
                    "internalType": "enum MultiUniversityProjectRepository.AccessLevel",
                    "name": "accessLevel",
                    "type": "uint8"
                }
            ],
            "stateMutability": "view",
            "type": "function"
        },
        {
            "inputs": [
                {
                    "internalType": "address",
                    "name": "_author",
                    "type": "address"
                },
                {
                    "internalType": "uint256",
                    "name": "_start",
                    "type": "uint256"
                },
                {
                    "internalType": "uint256",
                    "name": "_limit",
                    "type": "uint256"
                }
            ],
            "name": "getProjectsByAuthor",
            "outputs": [
                {
                    "internalType": "uint256[]",
                    "name": "projectIds",
                    "type": "uint256[]"
                }
            ],
            "stateMutability": "view",
            "type": "function"
        },
        {
            "inputs": [
                {
                    "internalType": "uint256",
                    "name": "_departmentId",
                    "type": "uint256"
                },
                {
                    "internalType": "uint256",
                    "name": "_start",
                    "type": "uint256"
                },
                {
                    "internalType": "uint256",
                    "name": "_limit",
                    "type": "uint256"
                }
            ],
            "name": "getProjectsByDepartment",
            "outputs": [
                {
                    "internalType": "uint256[]",
                    "name": "projectIds",
                    "type": "uint256[]"
                }
            ],
            "stateMutability": "view",
            "type": "function"
        },
        {
            "inputs": [
                {
                    "internalType": "uint256",
                    "name": "_year",
                    "type": "uint256"
                },
                {
                    "internalType": "uint256",
                    "name": "_start",
                    "type": "uint256"
                },
                {
                    "internalType": "uint256",
                    "name": "_limit",
                    "type": "uint256"
                }
            ],
            "name": "getProjectsByYear",
            "outputs": [
                {
                    "internalType": "uint256[]",
                    "name": "projectIds",
                    "type": "uint256[]"
                }
            ],
            "stateMutability": "view",
            "type": "function"
        },
        {
            "inputs": [
                {
                    "internalType": "uint256",
                    "name": "_departmentId",
                    "type": "uint256"
                }
            ],
            "name": "getStudentsByDepartment",
            "outputs": [
                {
                    "internalType": "address[]",
                    "name": "students",
                    "type": "address[]"
                }
            ],
            "stateMutability": "view",
            "type": "function"
        },
        {
            "inputs": [],
            "name": "getTotalProjects",
            "outputs": [
                {
                    "internalType": "uint256",
                    "name": "",
                    "type": "uint256"
                }
            ],
            "stateMutability": "view",
            "type": "function"
        },
        {
            "inputs": [
                {
                    "internalType": "address",
                    "name": "_user",
                    "type": "address"
                }
            ],
            "name": "getUserDepartment",
            "outputs": [
                {
                    "internalType": "uint256",
                    "name": "",
                    "type": "uint256"
                }
            ],
            "stateMutability": "view",
            "type": "function"
        },
        {
            "inputs": [
                {
                    "internalType": "address",
                    "name": "_user",
                    "type": "address"
                }
            ],
            "name": "getUserInfo",
            "outputs": [
                {
                    "internalType": "bool",
                    "name": "isRegistered",
                    "type": "bool"
                },
                {
                    "internalType": "bool",
                    "name": "isStudent",
                    "type": "bool"
                },
                {
                    "internalType": "bool",
                    "name": "isAdmin",
                    "type": "bool"
                },
                {
                    "internalType": "uint256",
                    "name": "departmentId",
                    "type": "uint256"
                },
                {
                    "internalType": "uint256",
                    "name": "institutionId",
                    "type": "uint256"
                }
            ],
            "stateMutability": "view",
            "type": "function"
        },
        {
            "inputs": [
                {
                    "internalType": "address",
                    "name": "_user",
                    "type": "address"
                },
                {
                    "internalType": "uint256",
                    "name": "_institutionId",
                    "type": "uint256"
                }
            ],
            "name": "isInstitutionAdmin",
            "outputs": [
                {
                    "internalType": "bool",
                    "name": "",
                    "type": "bool"
                }
            ],
            "stateMutability": "view",
            "type": "function"
        },
        {
            "inputs": [
                {
                    "internalType": "address",
                    "name": "_user",
                    "type": "address"
                }
            ],
            "name": "isUserRegistered",
            "outputs": [
                {
                    "internalType": "bool",
                    "name": "",
                    "type": "bool"
                }
            ],
            "stateMutability": "view",
            "type": "function"
        },
        {
            "inputs": [
                {
                    "internalType": "uint256",
                    "name": "_projectId",
                    "type": "uint256"
                }
            ],
            "name": "projectExists",
            "outputs": [
                {
                    "internalType": "bool",
                    "name": "",
                    "type": "bool"
                }
            ],
            "stateMutability": "view",
            "type": "function"
        },
        {
            "inputs": [
                {
                    "internalType": "string",
                    "name": "_title",
                    "type": "string"
                },
                {
                    "internalType": "string",
                    "name": "_ipfsHash",
                    "type": "string"
                },
                {
                    "internalType": "uint256",
                    "name": "_departmentId",
                    "type": "uint256"
                },
                {
                    "internalType": "uint256",
                    "name": "_year",
                    "type": "uint256"
                },
                {
                    "internalType": "string",
                    "name": "_description",
                    "type": "string"
                },
                {
                    "internalType": "enum MultiUniversityProjectRepository.AccessLevel",
                    "name": "_accessLevel",
                    "type": "uint8"
                }
            ],
            "name": "registerProject",
            "outputs": [
                {
                    "internalType": "uint256",
                    "name": "",
                    "type": "uint256"
                }
            ],
            "stateMutability": "nonpayable",
            "type": "function"
        },
        {
            "inputs": [
                {
                    "internalType": "address",
                    "name": "_user",
                    "type": "address"
                },
                {
                    "internalType": "uint256",
                    "name": "_departmentId",
                    "type": "uint256"
                },
                {
                    "internalType": "bool",
                    "name": "isStudentFlag",
                    "type": "bool"
                }
            ],
            "name": "registerUserWithDepartment",
            "outputs": [],
            "stateMutability": "nonpayable",
            "type": "function"
        },
        {
            "inputs": [
                {
                    "internalType": "address",
                    "name": "_admin",
                    "type": "address"
                },
                {
                    "internalType": "bool",
                    "name": "_isAdmin",
                    "type": "bool"
                }
            ],
            "name": "setInstitutionalAdmin",
            "outputs": [],
            "stateMutability": "nonpayable",
            "type": "function"
        },
        {
            "inputs": [
                {
                    "internalType": "uint256",
                    "name": "_projectId",
                    "type": "uint256"
                },
                {
                    "internalType": "enum MultiUniversityProjectRepository.AccessLevel",
                    "name": "_newAccessLevel",
                    "type": "uint8"
                }
            ],
            "name": "setProjectAccessLevel",
            "outputs": [],
            "stateMutability": "nonpayable",
            "type": "function"
        },
        {
            "inputs": [
                {
                    "internalType": "uint256",
                    "name": "_projectId",
                    "type": "uint256"
                },
                {
                    "internalType": "string",
                    "name": "_newIpfsHash",
                    "type": "string"
                }
            ],
            "name": "updateProjectIpfsHash",
            "outputs": [],
            "stateMutability": "nonpayable",
            "type": "function"
        }
    ],
    "bytecode": "0x6080604052346110a557600160008181558180556002829055600b80546001600160a01b0319163390811790915581526009602052604090819020805460ff19169092179091555160a081016001600160401b038111828210176106f75760405261006a60406110e8565b601881527f556e6976657273697479206f6620546563686e6f6c6f67790000000000000000602082015281526100a060406110e8565b601081526f537461746520556e697665727369747960801b602082015260208201526100cc60406110e8565b601081526f4e6174696f6e616c20436f6c6c65676560801b602082015260408201526100f860406110e8565b601381527f546563686e6963616c20496e73746974757465000000000000000000000000006020820152606082015261013160406110e8565b60128152714d65646963616c20556e697665727369747960701b6020820152608082015260005b60058110610eb6576101686110aa565b61017260406110e8565b601081526f436f6d707574657220536369656e636560801b6020820152815261019b60406110e8565b601681527f456c656374726963616c20456e67696e656572696e6700000000000000000000602082015260208201526101d460406110e8565b601681527f4d656368616e6963616c20456e67696e656572696e67000000000000000000006020820152604082015261020b6110aa565b61021560406110e8565b601781527f427573696e6573732041646d696e697374726174696f6e0000000000000000006020820152815261024b60406110e8565b600981526845636f6e6f6d69637360b81b6020820152602082015261027060406110e8565b60038152624c617760e81b6020820152604082015261028d6110aa565b61029760406110e8565b600b81526a4d617468656d617469637360a81b602082015281526102bb60406110e8565b60078152665068797369637360c81b602082015260208201526102de60406110e8565b60098152684368656d697374727960b81b602082015260408201526103016110aa565b9161030c60406110e8565b6011815270436976696c20456e67696e656572696e6760781b6020820152835261033660406110e8565b600c81526b41726368697465637475726560a01b6020820152602084015261035e60406110e8565b600e81526d557262616e20506c616e6e696e6760901b602082015260408401526103866110aa565b9361039160406110e8565b60088152674d65646963696e6560c01b602082015285526103b260406110e8565b6008815267506861726d61637960c01b602082015260208601526103d660406110e8565b60078152664e757273696e6760c81b6020820152604086015260005b60038110610cd257505060005b60038110610aed57505060005b6003811061090857505060005b60038110610723576000835b600382106104f95760018060a01b03600b54166000526006602052600160406000205560018060a01b03600b54166000526007602052600160406000205560018060a01b03600b541660005260086020526040600020600160ff1982541617905560018060a01b03600b5416600052600a602052604060002060ff198154169055600180808060a01b03600b54167f40bcc93926ffc9fd8bc50fa053d91ad5eecfe6e7560971241997939352c17d46606060405160008152836020820152426040820152a460405161314f90816111948239f35b60015491600019831461070d57600183016001556105178183611182565b51926105216110c9565b81815260208101948552604081016005815260608201906001825283600052600460205260406000209251835560018301965180519060018060401b0382116106f7578854600181811c911680156106ed575b60208210146106d757601f811161068f575b50602090601f831160011461061e5798826105db9695936003959360019b9c600092610613575b505060001982871b1c1916908a1b1790555b51600284015551151591019060ff801983541691151516179055565b60056105e78386611182565b51916000805160206142e3833981519152604051806106093396429083611134565b0390a40190610425565b015190508c806105ad565b90601f198316918a600052816000209260005b8181106106775750936003959360019b9c938c93836105db9b9a981061065f575b505050811b0190556105bf565b015160001983891b60f8161c191690558c8080610652565b82840151855560019094019360209384019301610631565b896000526020600020601f840160051c810191602085106106cd575b601f0160051c01905b8181106106c15750610586565b600081556001016106b4565b90915081906106ab565b634e487b7160e01b600052602260045260246000fd5b90607f1690610574565b634e487b7160e01b600052604160045260246000fd5b634e487b7160e01b600052601160045260246000fd5b600154600019811461070d57600181016001556107408284611182565b516107496110c9565b9082825260208201908152604082016004815260608301916001835284600052600460205260406000209351845560018401905180519060018060401b0382116106f7578254600181811c911680156108fe575b60208210146106d757601f81116108b6575b50602090601f8311600114610845579282610803969360019a9998969360039660009261083a57505060001982871b1c1916908a1b17905551600284015551151591019060ff801983541691151516179055565b600461080f8386611182565b51916000805160206142e3833981519152604051806108313396429083611134565b0390a401610419565b015190508d806105ad565b90601f1983169184600052816000209260005b81811061089e57509360019a99989693600396938c93836108039b981061088657505050811b0190556105bf565b015160001983891b60f8161c191690558d8080610652565b92936020600181928786015181550195019301610858565b836000526020600020601f840160051c810191602085106108f4575b601f0160051c01905b8181106108e857506107af565b600081556001016108db565b90915081906108d2565b90607f169061079d565b600154600019811461070d57600181016001556109258284611182565b5161092e6110c9565b9082825260208201908152604082016003815260608301916001835284600052600460205260406000209351845560018401905180519060018060401b0382116106f7578254600181811c91168015610ae3575b60208210146106d757601f8111610a9b575b50602090601f8311600114610a2a5792826109e8969360019a99989693600396600092610a1f57505060001982871b1c1916908a1b17905551600284015551151591019060ff801983541691151516179055565b60036109f48386611182565b51916000805160206142e383398151915260405180610a163396429083611134565b0390a40161040c565b015190508e806105ad565b90601f1983169184600052816000209260005b818110610a8357509360019a99989693600396938c93836109e89b9810610a6b57505050811b0190556105bf565b015160001983891b60f8161c191690558e8080610652565b92936020600181928786015181550195019301610a3d565b836000526020600020601f840160051c81019160208510610ad9575b601f0160051c01905b818110610acd5750610994565b60008155600101610ac0565b9091508190610ab7565b90607f1690610982565b600154600019811461070d5760018101600155610b0a8284611182565b51610b136110c9565b9082825260208201908152604082016002815260608301916001835284600052600460205260406000209351845560018401905180519060018060401b0382116106f7578254600181811c91168015610cc8575b60208210146106d757601f8111610c80575b50602090601f8311600114610c0f579282610bcd969360019a99989693600396600092610c0457505060001982871b1c1916908a1b17905551600284015551151591019060ff801983541691151516179055565b6002610bd98386611182565b51916000805160206142e383398151915260405180610bfb3396429083611134565b0390a4016103ff565b015190508f806105ad565b90601f1983169184600052816000209260005b818110610c6857509360019a99989693600396938c9383610bcd9b9810610c5057505050811b0190556105bf565b015160001983891b60f8161c191690558f8080610652565b92936020600181928786015181550195019301610c22565b836000526020600020601f840160051c81019160208510610cbe575b601f0160051c01905b818110610cb25750610b79565b60008155600101610ca5565b9091508190610c9c565b90607f1690610b67565b600154600019811461070d5760018101600155610cef8284611182565b51610cf86110c9565b9082825260208201908152604082016001815260608301916001835284600052600460205260406000209351845560018401905180519060018060401b0382116106f7578254600181811c91168015610eac575b60208210146106d757601f8111610e64575b50602090601f8311600114610df3579282610db2969360019a99989693600396600092610de857505060001982871b1c1916908a1b17905551600284015551151591019060ff801983541691151516179055565b82610dbd8386611182565b51916000805160206142e383398151915260405180610ddf3396429083611134565b0390a4016103f2565b0151905038806105ad565b90601f1983169184600052816000209260005b818110610e4c57509360019a99989693600396938c9383610db29b9810610e3457505050811b0190556105bf565b015160001983891b60f8161c19169055388080610652565b92936020600181928786015181550195019301610e06565b836000526020600020601f840160051c81019160208510610ea2575b601f0160051c01905b818110610e965750610d5e565b60008155600101610e89565b9091508190610e80565b90607f1690610d4c565b600181019081811161070d57610ecc818461110d565b51610ed56110aa565b908382526020820190815260408201906001825284600052600560205260406000209251835560018301905180519060018060401b0382116106f7578254600181811c9116801561109b575b60208210146106d757601f8111611053575b50602090601f8311600114610fe457918060029492610f81979694600092610fd9575b50508160011b916000199060031b1c19161790555b51151591019060ff801983541691151516179055565b610f8b818461110d565b51827fb1993a6510b3562992b728bf233b9589cf45fc4aab0cace01c8d7289e1e6814360405180610fbf3395429083611134565b0390a36002810180921161070d5760019160025501610158565b015190503880610f56565b90601f1983169184600052816000209260005b81811061103b5750926001928592610f819998966002989610611022575b505050811b019055610f6b565b015160001960f88460031b161c19169055388080611015565b82840151855560019094019360209384019301610ff7565b836000526020600020601f840160051c81019160208510611091575b601f0160051c01905b8181106110855750610f33565b60008155600101611078565b909150819061106f565b90607f1690610f21565b600080fd5b60405190606082016001600160401b038111838210176106f757604052565b60405190608082016001600160401b038111838210176106f757604052565b6040519190601f01601f191682016001600160401b038111838210176106f757604052565b90600581101561111e5760051b0190565b634e487b7160e01b600052603260045260246000fd5b9291906040845280519081604086015260005b82811061116c57505060608160008260209488010152601f8019910116850101930152565b8060208092840101516060828901015201611147565b90600381101561111e5760051b019056fe6080604052600436101561001257600080fd5b60003560e01c8063113f903e146122da578063163f75221461229b5780631cded7a214611b6a57806339fe0401146117205780633d421ad9146116c25780633fef6c2a1461150b5780634104180e1461146d57806349747e3a1461144057806357b91ea21461139457806361e0e960146111065780636386c1c7146110695780636cebb72c14610e07578063703d52af14610dd05780637ed4a85114610ba15780638098b9c41461099f578063812739a21461095e578063a457f855146108fe578063a5253e6d146108a5578063b36d37ad146106e3578063bee5cdca1461064f578063c756a060146105fb578063d3f2c82714610486578063d56aff571461023e5763e1580a6b1461012457600080fd5b3461023957604036600319011261023957602435600435600382101561023957600091816000526003602052604060002061016860ff600883015460081c16612952565b60020180549060005b8281106101fb575b60ff856101cd866101898a612997565b8260005260036020526101c360086040600020016101b7838254926101b2898560081c16612952565b61285c565b60405195869116612634565b6020840190612634565b4260408301527f1fcb24af6df388e604032b2e0ecf746757673dbe4d8a21ebccbe199d72ea946c60603393a3005b6102058183612889565b905460039190911b1c6001600160a01b0316331461022557600101610171565b5060019450829150610189905060ff610179565b600080fd5b34610239576040366003190112610239576024356001600160a01b03811690600435908290036102395760009080600052600360205260406000209161028d60ff600885015460081c16612952565b6002600093018054935b84811061044a575b50506102ac919250612997565b81156104055781600052600860205260ff60406000205416156103a95760005260036020526040600020600260009101908154905b81811061033a5750600160401b8110156103245761030491600182018155612889565b81546001600160a01b0360039290921b91821b191692901b919091179055005b634e487b7160e01b600052604160045260246000fd5b836103458285612889565b905460039190911b1c6001600160a01b031614610364576001016102e1565b60405162461bcd60e51b815260206004820152601c60248201527f4164647265737320697320616c726561647920616e20617574686f72000000006044820152606490fd5b60405162461bcd60e51b815260206004820152602e60248201527f436f2d617574686f72206d75737420626520726567697374657265642077697460448201526d1a08184819195c185c9d1b595b9d60921b6064820152608490fd5b60405162461bcd60e51b815260206004820152601960248201527f496e76616c696420636f2d617574686f722061646472657373000000000000006044820152606490fd5b6104548183612889565b905460039190911b1c6001600160a01b0316331461047457600101610297565b50505090506102ac600182918561029f565b34610239576020366003190112610239576004358060005260056020526104b760ff60026040600020015416612ad4565b6000906001908154915b8281106105a557506104d2836127c5565b926104dc816129f7565b9160009160015b8581108061059c575b156105895780600052600460205260ff600360406000200154168061056f575b61051f575b61051a9061279f565b6104e3565b92610567818561053261051a948b6127f7565b5285600052600460205261054c60016040600020016128ae565b61055682896127f7565b5261056181886127f7565b5061279f565b939050610511565b50806000526004602052826002604060002001541461050c565b60405180610598878a83612584565b0390f35b508184106104ec565b80600052600460205260ff60036040600020015416806105e1575b6105cd575b6001016104c1565b926105d960019161279f565b9390506105c5565b5080600052600460205281600260406000200154146105c0565b34610239576020366003190112610239576001600160a01b0361061c61244c565b1680600052600860205261063760ff60406000205416612b20565b60005260066020526020604060002054604051908152f35b34610239576020366003190112610239576101206106ac6106bf6105986106d761069e61067d600435612b7f565b9b95919660409d939991989d519e8f9e8f9081528160208201520190612527565b8c810360408e0152906125f7565b9160608b015289820360808b0152612527565b9260a088015260c087015285820360e0870152612527565b91610100840190612634565b34610239576106f1366124d9565b600090826001928054935b848110610837575060008282111561082d57508261071a83836128a1565b10156108265761072a92506128a1565b915b610735836127c5565b9280610752575b60405160208082528190610598908201876124f3565b90919260009160009060015b8681108061081d575b156108095780600052600360205260ff60086040600020015460081c16806107ef575b61079d575b6107989061279f565b61075e565b6107a7338261301e565b1561078f5793858110156107ca575b6107c26107989161279f565b94905061078f565b916107c26107e682876107e061079895896127f7565b5261279f565b939150506107b6565b50806000526003602052876006604060002001541461078a565b50505092505050610598915082808061073c565b50818310610767565b505061072a565b925050509161072c565b80919250600052600360205260ff60086040600020015460081c168061088b575b610868575b6001019084916106fc565b610872338261301e565b1561085d579061088360019161279f565b91905061085d565b508060005260036020528560066040600020015414610858565b34610239576020366003190112610239576004358060005260036020526108d960ff60086040600020015460081c16612952565b6000526003602052602060ff600860406000200154166108fc6040518092612634565bf35b346102395760203660031901126102395760043580600052600560205261092f60ff60026040600020015416612ad4565b600052600560205261059861094a60016040600020016128ae565b604051918291602083526020830190612527565b3461023957600036600319011261023957600054600019810190811161098957602090604051908152f35b634e487b7160e01b600052601160045260246000fd5b34610239576020366003190112610239576004356001600160401b038111610239576109cf903690600401612483565b6109e460018060a01b03600b54163314612a71565b6002546109f08161279f565b60025560405191606083018381106001600160401b0382111761032457604052818352602083019281845260408101600181528360005260056020526040600020915182556001820194519485516001600160401b03811161032457602096610a59835461280b565b601f8111610b66575b508790601f8311600114610af857918060029492610aaf979694600092610aed575b50508160011b916000199060031b1c19161790555b51151591019060ff801983541691151516179055565b817fb1993a6510b3562992b728bf233b9589cf45fc4aab0cace01c8d7289e1e6814360405180610ae23395429083612568565b0390a3604051908152f35b015190508a80610a84565b90601f1983169184600052816000209260005b818110610b4f5750926001928592610aaf9998966002989610610b36575b505050811b019055610a99565b015160001960f88460031b161c191690558a8080610b29565b92938b600181928786015181550195019301610b0b565b610b91908460005289600020601f850160051c8101918b8610610b97575b601f0160051c0190612845565b88610a62565b9091508190610b84565b3461023957602036600319011261023957600435806000526004602052610bd260ff600360406000200154166126c2565b6000808054915b828110610cfa5750610bea816127c5565b9060009060005b84811080610cf1575b15610cdb5760008181526003602052604081206002015415610cd65750806000526003602052610c306002604060002001612874565b905460039190911b1c6001600160a01b03165b6001600160a01b031680151580610cbe575b80610ca6575b80610c8f575b610c75575b50610c709061279f565b610bf1565b83610c88916107e0610c709496886127f7565b9290610c66565b508060005260066020528660406000205414610c61565b5080600052600a60205260ff60406000205416610c5b565b5080600052600860205260ff60406000205416610c55565b610c43565b60405160208082528190610598908201876125f7565b50818310610bfa565b60008181526003602052604081206002015415610dcb5750806000526003602052610d2b6002604060002001612874565b905460039190911b1c6001600160a01b03165b6001600160a01b03168015159081610db1575b81610d97575b81610d7f575b50610d6b575b600101610bd9565b90610d7760019161279f565b919050610d63565b90506000526006602052836040600020541485610d5d565b809150600052600a60205260ff6040600020541690610d57565b809150600052600860205260ff6040600020541690610d51565b610d3e565b34610239576020366003190112610239576004356000526003602052602060ff60086040600020015460081c166040519015158152f35b34610239576040366003190112610239576004356001600160401b03811161023957610e37903690600401612483565b6024359060018060a01b03600b541633148015611050575b610e5890612641565b610e648151151561270e565b610e72606482511115612753565b816000526005602052610e8f60ff60026040600020015416612ad4565b60015490610e9c8261279f565b60015560405192608084018481106001600160401b03821117610324576040528284526020840193828552604081018281526060820190600182528560005260046020526040600020925183556001830196519687516001600160401b03811161032457602098610f0d835461280b565b601f8111611020575b508990601f8311600114610fb2579180610f699796949260039694600092610fa7575b50508160011b9160001990871b1c19161790555b51600284015551151591019060ff801983541691151516179055565b827fc4a0ba6be3dc87b673a36263c1972fb1675658ba6b82e34b306eecb92c81756b60405180610f9c3396429083612568565b0390a4604051908152f35b015190508c80610f39565b90601f1983169184600052816000209260005b818110611009575092600192859260039896610f699b9a989610610ff1575b505050811b019055610f4d565b015160001983891b60f8161c191690558c8080610fe4565b92938d600181928786015181550195019301610fc5565b61104a90846000528b600020601f850160051c8101918d8610610b9757601f0160051c0190612845565b8a610f16565b503360009081526009602052604090205460ff16610e4f565b346102395760203660031901126102395760a06001600160a01b0361108c61244c565b1680600052600860205260ff604060002054169080600052600a60205260ff604060002054169080600052600960205260ff60406000205416816000526006602052604060002054916000526007602052604060002054926040519415158552151560208501521515604084015260608301526080820152f35b346102395760603660031901126102395761111f61244c565b602435604435600090826001928054935b8481106112b857506000828211156112ae57508261114e83836128a1565b10156112a75761115e92506128a1565b915b611169836127c5565b92806111855760405160208082528190610598908201876124f3565b90919260009160009060015b8681108061129e575b156108095780600052600360205260ff60086040600020015460081c166111ca575b6111c59061279f565b611191565b60009790966001600160a01b038216929190895b8960005260036020526002604060002001548110156112935789600052600360205284611212826002604060002001612889565b905460039190911b1c6001600160a01b031614611231576001016111de565b5097919250975060015b80611283575b156111bc579385811015611264575b61125c6111c59161279f565b9490506111bc565b9161125c61127a82876107e06111c595896127f7565b93915050611250565b5061128e338261301e565b611241565b50979192509761123b565b5081831061119a565b505061115e565b9250505091611160565b80919250600052600360205260ff60086040600020015460081c166112e3575b600101908491611130565b9194600094929391926001600160a01b03821692865b866000526003602052600260406000200154811015611387578660005260036020528461132d826002604060002001612889565b905460039190911b1c6001600160a01b03161461134c576001016112f9565b50949196939250945060015b80611377575b156112d8579061136f60019161279f565b9190506112d8565b50611382338261301e565b61135e565b5094919693925094611358565b34610239576040366003190112610239576113ad61244c565b602435908115158203610239576113cf60018060a01b03600b54163314612a71565b6001600160a01b03169081156114035761140191600052600960205260406000209060ff801983541691151516179055565b005b60405162461bcd60e51b8152602060048201526015602482015274496e76616c69642061646d696e206164647265737360581b6044820152606490fd5b3461023957604036600319011261023957602061146361145e61244c565b612a41565b6040519015158152f35b3461023957600036600319011261023957600254600019810190811161098957611496816127c5565b61149f826129f7565b9160015b818111156114bc57505061059860405192839283612584565b6000198101908082116109895761056182826114db61150695886127f7565b528260005260056020526114f560016040600020016128ae565b6114ff82896127f7565b52866127f7565b6114a3565b34610239576040366003190112610239576004356024356001600160401b0381116102395761153e903690600401612483565b9060009080600052600360205260406000209161156460ff600885015460081c16612952565b6002600093018054935b848110611686575b5050611583919250612997565b6000526003602052600460406000200181516001600160401b038111610324576115ad825461280b565b601f8111611654575b50602092601f82116001146115f457928192936000926115e9575b5050600019600383901b1c191660019190911b179055005b0151905083806115d1565b601f1982169383600052806000209160005b86811061163c5750836001959610611623575b505050811b019055005b015160001960f88460031b161c19169055838080611619565b91926020600181928685015181550194019201611606565b61168090836000526020600020601f840160051c81019160208510610b9757601f0160051c0190612845565b836115b6565b6116908183612889565b905460039190911b1c6001600160a01b031633146116b05760010161156e565b50505090506115836001829185611576565b34610239576020366003190112610239576004358060005260046020526116f360ff600360406000200154166126c2565b600052600460205260406000206117116001600283015492016128ae565b61059860405192839283612568565b346102395761172e366124d9565b82600052600460205261174b60ff600360406000200154166126c2565b600090826001928054935b8481106119d657506000828211156119cc57508261177483836128a1565b10156119c55761178492506128a1565b915b61178f836127c5565b92806117ab5760405160208082528190610598908201876124f3565b90919260009160009060015b868110806119bc575b156108095780600052600360205260ff60086040600020015460081c16806119a2575b6117f6575b6117f19061279f565b6117b7565b6000818152600360205260ff600860408320015416600381101561198e5761185e575060015b156117e857938581101561183f575b6118376117f19161279f565b9490506117e8565b9161183761185582876107e06117f195896127f7565b9391505061182b565b9687969594939291965b8760005260036020526002604060002001548110156119805787600052600360205261189b816002604060002001612889565b905460039190911b1c6001600160a01b031633146118bb57600101611868565b509650909192939460015b801580611968575b611960575b801580611923575b8061190b575b806118f4575b1561181c5750600161181c565b5033600052600660205288604060002054146118e7565b5033600052600860205260ff604060002054166118e1565b5081600052600360205260ff60086040600020015416600381101561194a576001146118db565b634e487b7160e01b600052602160045260246000fd5b5060016118d3565b5033600052600960205260ff604060002054166118ce565b5096959091929394956118c6565b634e487b7160e01b82526021600452602482fd5b5080600052600360205287600560406000200154146117e3565b508183106117c0565b5050611784565b9250505091611786565b80919250600052600360205260ff60086040600020015460081c1680611b50575b611a09575b6001905b01908491611756565b929383600093929352600360205260ff60086040600020015416600381101561194a5715611b4157600094855b856000526003602052600260406000200154811015611b3557856000526003602052611a69816002604060002001612889565b905460039190911b1c6001600160a01b03163314611a8957600101611a36565b509390945060019291925b611b235733600052600960205260ff60406000205416611b235780600052600360205260ff60086040600020015416600381101561194a5760011480611b0b575b80611af4575b156119fc5790611aec60019161279f565b9190506119fc565b503360005260066020528560406000205414611adb565b5033600052600860205260ff60406000205416611ad5565b90611b2f60019161279f565b91611a00565b50939094929192611a94565b93929091611b2f60019161279f565b5080600052600360205285600560406000200154146119f7565b346102395760c0366003190112610239576004356001600160401b03811161023957611b9a903690600401612483565b6024356001600160401b03811161023957611bb9903690600401612483565b50606435906084356001600160401b03811161023957611bdd903690600401612483565b600360a435101561023957611bf48251151561270e565b611c02606483511115612753565b611c0e8151151561270e565b611c1d6101f482511115612753565b6044356000526004602052611c3c60ff600360406000200154166126c2565b33600052600860205260ff60406000205416156121f1575b6107d0831015806121c9575b156121955760005491611c728361279f565b600055604091825190611c858483612462565b6001825260208201601f19850136823782511561217f5733905283519061014082018281106001600160401b0382111761032457855285825260208201908482528583019384524260608401526020978651611ce18a82612462565b60008152608085015260443560a085015260c084015260e083015260009260a4356101008401526001610120840152868452600388528584209183518355518051906001600160401b038211611fde578190611d40600186015461280b565b8b601f821161214e575b50508a90601f83116001146120e55787926120da575b50508160011b916000199060031b1c19161760018301555b518051906001600160401b0382116120c657600160401b82116120c657889060028401548360028601558084106120a9575b5001600283018552888520855b83811061208e5750505050606082015160038201556004810160808301518051906001600160401b038211611fde578190611df2845461280b565b8b601f8211612060575b50508a90601f8311600114611ffd578792611ff2575b50508160011b916000199060031b1c19161790555b60a0820151600582015560c082015160068201556007810160e08301518051906001600160401b038211611fde57611e5f835461280b565b601f8111611fb0575b508990601f8311600114611f4957600894939291879183611f3e575b50508160011b916000199060031b1c19161790555b0191610100820151906003821015611f2a575090611eba610120928461285c565b0151151561ff0082549160081b169061ff001916179055611ee5825191606083526060830190612527565b611ef385830160a435612634565b4283830152837f01090010fbb451053d0600b625b0b4463e7778b73691f5fd5a9be6fe9cb0f7e7604435938033940390a451908152f35b634e487b7160e01b81526021600452602490fd5b015190508b80611e84565b8387528a87209190601f198416885b8d828210611f9a57505091600193918560089897969410611f81575b505050811b019055611e99565b015160001960f88460031b161c191690558b8080611f74565b6001859682939686015181550195019301611f58565b611fd8908488528b8820601f850160051c8101918d8610610b9757601f0160051c0190612845565b8a611e68565b634e487b7160e01b86526041600452602486fd5b015190508a80611e12565b8488528b88209250601f198416885b8d82821061204a575050908460019594939210612031575b505050811b019055611e27565b015160001960f88460031b161c191690558a8080612024565b600185968293968601518155019501930161200c565b85895280892061208792601f860160051c8201928610610b9757601f0160051c0190612845565b8b8b611dfc565b82516001600160a01b031682820155918a0191600101611db7565b6002850187528287206120c0918101908501612845565b8a611daa565b634e487b7160e01b85526041600452602485fd5b015190508a80611d60565b6001860188528b88209250601f198416885b8d82821061213857505090846001959493921061211f575b505050811b016001830155611d78565b015160001960f88460031b161c191690558a808061210f565b60018596829396860151815501950193016120f7565b60018701895280892061217892601f860160051c8201928610610b9757601f0160051c0190612845565b8b8b611d4a565b634e487b7160e01b600052603260045260246000fd5b60405162461bcd60e51b815260206004820152600c60248201526b24b73b30b634b2103cb2b0b960a11b6044820152606490fd5b506301e1338042046107b2810190818111610989576107b30180911161098957831115611c60565b6044356000526004602052600260406000200154336000526006602052604435604060002055336000526007602052806040600020553360005260086020526040600020600160ff1982541617905533600052600a6020526040600020600160ff1982541617905560405160018152336020820152426040820152604435907f40bcc93926ffc9fd8bc50fa053d91ad5eecfe6e7560971241997939352c17d4660603392a4611c54565b34610239576020366003190112610239576001600160a01b036122bc61244c565b166000526008602052602060ff604060002054166040519015158152f35b34610239576060366003190112610239576122f361244c565b602435604435918215159081840361023957600b546001600160a01b031633148015612433575b61232390612641565b6001600160a01b03169081156123f75760607f40bcc93926ffc9fd8bc50fa053d91ad5eecfe6e7560971241997939352c17d469184600052600460205261237460ff600360406000200154166126c2565b8460005260046020526123e26002604060002001549685600052600660205286604060002055856000526007602052876040600020558560005260086020526040600020600160ff1982541617905585600052600a60205260406000209060ff801983541691151516179055565b604051908152336020820152426040820152a4005b60405162461bcd60e51b8152602060048201526014602482015273496e76616c69642075736572206164647265737360601b6044820152606490fd5b503360009081526009602052604090205460ff1661231a565b600435906001600160a01b038216820361023957565b90601f801991011681019081106001600160401b0382111761032457604052565b81601f82011215610239578035906001600160401b03821161032457604051926124b7601f8401601f191660200185612462565b8284526020838301011161023957816000926020809301838601378301015290565b606090600319011261023957600435906024359060443590565b906020808351928381520192019060005b8181106125115750505090565b8251845260209384019390920191600101612504565b919082519283825260005b848110612553575050826000602080949584010152601f8019910116010190565b80602080928401015182828601015201612532565b92919061257f602091604086526040860190612527565b930152565b90612597906040835260408301906124f3565b906020818303910152815180825260208201916020808360051b8301019401926000915b8383106125ca57505050505090565b90919293946020806125e8600193601f198682030187528951612527565b970193019301919392906125bb565b906020808351928381520192019060005b8181106126155750505090565b82516001600160a01b0316845260209384019390920191600101612608565b90600382101561194a5752565b1561264857565b60405162461bcd60e51b815260206004820152604660248201527f4f6e6c7920696e737469747574696f6e616c2061646d696e73206f722074686560448201527f20636f6e7472616374206f776e65722063616e2063616c6c20746869732066756064820152653731ba34b7b760d11b608482015260a490fd5b156126c957565b60405162461bcd60e51b815260206004820152601960248201527f4465706172746d656e7420646f6573206e6f74206578697374000000000000006044820152606490fd5b1561271557565b60405162461bcd60e51b8152602060048201526016602482015275537472696e672063616e6e6f7420626520656d70747960501b6044820152606490fd5b1561275a57565b60405162461bcd60e51b815260206004820152601d60248201527f537472696e672065786365656473206d6178696d756d206c656e6774680000006044820152606490fd5b60001981146109895760010190565b6001600160401b0381116103245760051b60200190565b906127cf826127ae565b6127dc6040519182612462565b82815280926127ed601f19916127ae565b0190602036910137565b805182101561217f5760209160051b010190565b90600182811c9216801561283b575b602083101461282557565b634e487b7160e01b600052602260045260246000fd5b91607f169161281a565b818110612850575050565b60008155600101612845565b90600381101561194a5760ff80198354169116179055565b80541561217f57600052602060002090600090565b805482101561217f5760005260206000200190600090565b9190820391821161098957565b90604051918260008254926128c28461280b565b808452936001811690811561293057506001146128e9575b506128e792500383612462565b565b90506000929192526020600020906000915b8183106129145750509060206128e792820101386128da565b60209193508060019154838589010152019101909184926128fb565b9050602092506128e794915060ff191682840152151560051b820101386128da565b1561295957565b60405162461bcd60e51b8152602060048201526016602482015275141c9bda9958dd08191bd95cc81b9bdd08195e1a5cdd60521b6044820152606490fd5b1561299e57565b60405162461bcd60e51b815260206004820152602b60248201527f4f6e6c792070726f6a65637420617574686f72732063616e2063616c6c20746860448201526a34b990333ab731ba34b7b760a91b6064820152608490fd5b90612a01826127ae565b612a0e6040519182612462565b8281528092612a1f601f19916127ae565b019060005b828110612a3057505050565b806060602080938501015201612a24565b600b546001600160a01b0391821691168114612a6b57600052600960205260ff6040600020541690565b50600190565b15612a7857565b60405162461bcd60e51b815260206004820152602e60248201527f4f6e6c792074686520636f6e7472616374206f776e65722063616e2063616c6c60448201526d103a3434b990333ab731ba34b7b760911b6064820152608490fd5b15612adb57565b60405162461bcd60e51b815260206004820152601a60248201527f496e737469747574696f6e20646f6573206e6f742065786973740000000000006044820152606490fd5b15612b2757565b60405162461bcd60e51b815260206004820152602a60248201527f55736572206973206e6f742072656769737465726564207769746820616e792060448201526919195c185c9d1b595b9d60b21b6064820152608490fd5b8060005260036020526040600020906008820154612ba260ff8260081c16612952565b600b546001600160a01b03163314612f8d5760ff1691600383101561194a578215612efc57600080600283018054915b828110612ec4575b505050612e335733600052600960205260ff60406000205416612da257600160009314612c615760405162461bcd60e51b815260206004820152603260248201527f5573657220646f6573206e6f742068617665207065726d697373696f6e20746f604482015271081d9a595dc81d1a1a5cc81c1c9bda9958dd60721b6064820152608490fd5b3383526008602052612c7960ff604085205416612b20565b33835260066020526005604084205491015403612d42578192915260036020526040822090815491600281019260038201549260058301549160068401549160ff60088601541690612ccd600187016128ae565b9860405180998a9160208254918281520191845260208420935b818110612d20575050612cfc92500389612462565b612d146007612d0d600489016128ae565b97016128ae565b92989796959493929190565b84546001600160a01b031683526001948501948d945060209093019201612ce7565b60405162461bcd60e51b815260206004820152603260248201527f5573657220646f6573206e6f742068617665207065726d697373696f6e20746f604482015271081d9a595dc81d1a1a5cc81c1c9bda9958dd60721b6064820152608490fd5b509050600052600360205260406000208054600282019160038101549160058201549060068301549060ff600885015416612ddf600186016128ae565b9760405180896020829b5493848152019060005260206000209260005b818110612e11575050612cfc92500389612462565b84546001600160a01b031683526001948501948d945060209093019201612dfc565b509050600052600360205260406000208054600282019160038101549160058201549060068301549060ff600885015416612e70600186016128ae565b9760405180896020829b5493848152019060005260206000209260005b818110612ea2575050612cfc92500389612462565b84546001600160a01b031683526001948501948d945060209093019201612e8d565b612ece8183612889565b905460039190911b1c6001600160a01b03163314612eee57600101612bd2565b505050506001388080612bda565b509050600052600360205260406000208054600282019160038101549160058201549060068301549060ff600885015416612f39600186016128ae565b9760405180896020829b5493848152019060005260206000209260005b818110612f6b575050612cfc92500389612462565b84546001600160a01b031683526001948501948d945060209093019201612f56565b509050600052600360205260406000208054600282019160038101549160058201549060068301549060ff600885015416612fca600186016128ae565b9760405180896020829b5493848152019060005260206000209260005b818110612ffc575050612cfc92500389612462565b84546001600160a01b031683526001948501948d945060209093019201612fe7565b6000908152600360205260409020600b5490916001600160a01b03908116911681146131125760ff60088301541691600383101561194a5782156130d5576000600282018054915b8281106130dd5750505081600052600960205260ff604060002054166130d55760016000931491826130be575b826130a2575b5050612a6b5790565b9091508252600660205260056040832054910154143880613099565b8084526008602052604084205460ff169250613093565b505050600190565b846130e88284612889565b905460039190911b1c6001600160a01b03161461310757600101613066565b505050505050600190565b505060019056fea2646970667358221220987a6c5a576bcdd49ed8ea7f84b9ca1080bf467f3030e5dab9103974aa2090a464736f6c634300081c0033c4a0ba6be3dc87b673a36263c1972fb1675658ba6b82e34b306eecb92c81756b",
    "linkReferences": {},
    "deployedLinkReferences": {}
}